{
  "contractName": "Archipel",
  "abi": [
    {
      "anonymous": false,
      "inputs": [
        {
          "indexed": true,
          "name": "previousLeader",
          "type": "address"
        },
        {
          "indexed": true,
          "name": "newLeader",
          "type": "address"
        }
      ],
      "name": "LeaderChanged",
      "type": "event"
    },
    {
      "constant": false,
      "inputs": [
        {
          "name": "_reportLeader",
          "type": "address"
        }
      ],
      "name": "setLeader",
      "outputs": [],
      "payable": false,
      "stateMutability": "nonpayable",
      "type": "function"
    },
    {
      "constant": true,
      "inputs": [],
      "name": "leader",
      "outputs": [
        {
          "name": "",
          "type": "address"
        }
      ],
      "payable": false,
      "stateMutability": "view",
      "type": "function"
    }
  ],
  "bytecode": "0x608060405234801561001057600080fd5b5061042e806100206000396000f3fe608060405234801561001057600080fd5b50600436106100365760003560e01c806340eedabb1461003b5780634331e8dd14610085575b600080fd5b6100436100c9565b604051808273ffffffffffffffffffffffffffffffffffffffff1673ffffffffffffffffffffffffffffffffffffffff16815260200191505060405180910390f35b6100c76004803603602081101561009b57600080fd5b81019080803573ffffffffffffffffffffffffffffffffffffffff1690602001909291905050506100f2565b005b60008060009054906101000a900473ffffffffffffffffffffffffffffffffffffffff16905090565b600073ffffffffffffffffffffffffffffffffffffffff166000809054906101000a900473ffffffffffffffffffffffffffffffffffffffff1673ffffffffffffffffffffffffffffffffffffffff1614806101f45750600073ffffffffffffffffffffffffffffffffffffffff166000809054906101000a900473ffffffffffffffffffffffffffffffffffffffff1673ffffffffffffffffffffffffffffffffffffffff16141580156101f357506000809054906101000a900473ffffffffffffffffffffffffffffffffffffffff1673ffffffffffffffffffffffffffffffffffffffff168173ffffffffffffffffffffffffffffffffffffffff16145b5b610249576040517f08c379a000000000000000000000000000000000000000000000000000000000815260040180806020018281038252602c8152602001806103d7602c913960400191505060405180910390fd5b3373ffffffffffffffffffffffffffffffffffffffff166000809054906101000a900473ffffffffffffffffffffffffffffffffffffffff1673ffffffffffffffffffffffffffffffffffffffff16141561030c576040517f08c379a000000000000000000000000000000000000000000000000000000000815260040180806020018281038252601b8152602001807f596f752061726520616c726561647920746865206c65616465722e000000000081525060200191505060405180910390fd5b60008060009054906101000a900473ffffffffffffffffffffffffffffffffffffffff1690506000339050806000806101000a81548173ffffffffffffffffffffffffffffffffffffffff021916908373ffffffffffffffffffffffffffffffffffffffff1602179055508073ffffffffffffffffffffffffffffffffffffffff168273ffffffffffffffffffffffffffffffffffffffff167f20a41b6af7c8306fdec52386c51d5c48321cd6fde663606ff90de727e964eebe60405160405180910390a350505056fe5265706f72746564204c656164657220646f206e6f74206d617463682074686520616374697665206f6e652ea165627a7a72305820a2461a8acdf3ea9ff82c5f5fd4963c04f51a2a725f6e6c2575f4a1710f43ba450029",
  "source": "pragma solidity ^0.5.0;\n\ncontract Archipel {\n\n    address private _leader;\n    \n    event LeaderChanged(address indexed previousLeader, address indexed newLeader);\n\n    /**\n     * @dev take  leadership for validate in the federation\n     */\n    function setLeader(address _reportLeader) public {\n        require(\n            _leader == address(0) || ( _leader != address(0) && _reportLeader == _leader ),\n            \"Reported Leader do not match the active one.\"\n        );\n        require(_leader != msg.sender,  \"You are already the leader.\");\n        address previousLeader = _leader;\n        address newLeader = msg.sender;\n        _leader = newLeader;\n        emit LeaderChanged(previousLeader, newLeader);\n    }\n\n    /**\n     * @dev Returns the address of the current leader.\n     */\n    function leader() public view returns (address) {\n        return _leader;\n    }\n\n}\n",
  "sourcePath": "/Users/fbranci/eth-berlin-2019-archipel/chain/contracts/Archipel.sol",
  "compiler": {
    "name": "solc",
    "version": "0.5.8+commit.23d335f2.Emscripten.clang"
  },
  "schemaVersion": "3.0.13",
  "updatedAt": "2019-08-24T12:42:28.792Z",
  "devdoc": {
    "methods": {
      "leader()": {
        "details": "Returns the address of the current leader."
      },
      "setLeader(address)": {
        "details": "take  leadership for validate in the federation"
      }
    }
  },
  "userdoc": {
    "methods": {}
  }
}