{
  "contractName": "Archipel",
  "abi": [
    {
      "anonymous": false,
      "inputs": [
        {
          "indexed": true,
          "name": "previousLeader",
          "type": "address"
        },
        {
          "indexed": true,
          "name": "newLeader",
          "type": "address"
        }
      ],
      "name": "LeadershipChanged",
      "type": "event"
    },
    {
      "constant": false,
      "inputs": [],
      "name": "setLeader",
      "outputs": [],
      "payable": false,
      "stateMutability": "nonpayable",
      "type": "function"
    },
    {
      "constant": true,
      "inputs": [],
      "name": "leader",
      "outputs": [
        {
          "name": "",
          "type": "address"
        }
      ],
      "payable": false,
      "stateMutability": "view",
      "type": "function"
    }
  ],
  "bytecode": "0x608060405234801561001057600080fd5b50610202806100206000396000f3fe608060405234801561001057600080fd5b50600436106100365760003560e01c806340eedabb1461003b5780635317ca8014610085575b600080fd5b61004361008f565b604051808273ffffffffffffffffffffffffffffffffffffffff1673ffffffffffffffffffffffffffffffffffffffff16815260200191505060405180910390f35b61008d6100b8565b005b60008060009054906101000a900473ffffffffffffffffffffffffffffffffffffffff16905090565b3373ffffffffffffffffffffffffffffffffffffffff166000809054906101000a900473ffffffffffffffffffffffffffffffffffffffff1673ffffffffffffffffffffffffffffffffffffffff16146101d45760008060009054906101000a900473ffffffffffffffffffffffffffffffffffffffff1690506000339050806000806101000a81548173ffffffffffffffffffffffffffffffffffffffff021916908373ffffffffffffffffffffffffffffffffffffffff1602179055508073ffffffffffffffffffffffffffffffffffffffff168273ffffffffffffffffffffffffffffffffffffffff167f3d4a401eb230d95adc04a14515592753607b91f608d79fad865ccb3bd6396df760405160405180910390a350505b56fea165627a7a723058205a215e2dce93021997c649d45f65df7718365f84138829ebdb9e30982393847e0029",
  "source": "pragma solidity ^0.5.0;\n\ncontract Archipel {\n\n    address private _leader;\n    \n    event LeadershipChanged(address indexed previousLeader, address indexed newLeader);\n\n    /**\n     * @dev take  leadership for validate in the federation\n     */\n    function setLeader() public {\n        if ( _leader != msg.sender ) {\n            address oldLeader = _leader;\n            address newLeader = msg.sender;\n            _leader = newLeader;\n            emit LeadershipChanged(oldLeader,newLeader);\n        }\n    }\n\n    /**\n     * @dev Returns the address of the current leader.\n     */\n    function leader() public view returns (address) {\n        return _leader;\n    }\n\n}\n",
  "sourcePath": "/Users/fbranci/eth-berlin-2019-archipel/chain/contracts/Archipel.sol",
  "compiler": {
    "name": "solc",
    "version": "0.5.8+commit.23d335f2.Emscripten.clang"
  },
  "schemaVersion": "3.0.13",
  "updatedAt": "2019-08-24T09:32:38.341Z",
  "devdoc": {
    "methods": {
      "leader()": {
        "details": "Returns the address of the current leader."
      },
      "setLeader()": {
        "details": "take  leadership for validate in the federation"
      }
    }
  },
  "userdoc": {
    "methods": {}
  }
}